{
  "contractName": "FileAccess",
  "abi": [
    {
      "inputs": [],
      "stateMutability": "nonpayable",
      "type": "constructor"
    },
    {
      "anonymous": false,
      "inputs": [
        {
          "indexed": true,
          "internalType": "string",
          "name": "fileId",
          "type": "string"
        },
        {
          "indexed": false,
          "internalType": "string",
          "name": "storeId",
          "type": "string"
        },
        {
          "indexed": false,
          "internalType": "string",
          "name": "ipfsHash",
          "type": "string"
        }
      ],
      "name": "FileAccessed",
      "type": "event"
    },
    {
      "anonymous": false,
      "inputs": [
        {
          "indexed": true,
          "internalType": "string",
          "name": "fileId",
          "type": "string"
        },
        {
          "indexed": false,
          "internalType": "string",
          "name": "ipfsHash",
          "type": "string"
        }
      ],
      "name": "FileUploaded",
      "type": "event"
    },
    {
      "anonymous": false,
      "inputs": [
        {
          "indexed": true,
          "internalType": "string",
          "name": "storeId",
          "type": "string"
        }
      ],
      "name": "StoreAdded",
      "type": "event"
    },
    {
      "anonymous": false,
      "inputs": [
        {
          "indexed": true,
          "internalType": "string",
          "name": "fileId",
          "type": "string"
        },
        {
          "indexed": false,
          "internalType": "string",
          "name": "storeId",
          "type": "string"
        }
      ],
      "name": "StoreAssigned",
      "type": "event"
    },
    {
      "inputs": [],
      "name": "admin",
      "outputs": [
        {
          "internalType": "address",
          "name": "",
          "type": "address"
        }
      ],
      "stateMutability": "view",
      "type": "function",
      "constant": true
    },
    {
      "inputs": [
        {
          "internalType": "string",
          "name": "fileId",
          "type": "string"
        },
        {
          "internalType": "string",
          "name": "ipfsHash",
          "type": "string"
        }
      ],
      "name": "uploadFile",
      "outputs": [],
      "stateMutability": "nonpayable",
      "type": "function"
    },
    {
      "inputs": [
        {
          "internalType": "string",
          "name": "fileId",
          "type": "string"
        },
        {
          "internalType": "string",
          "name": "storeId",
          "type": "string"
        }
      ],
      "name": "assignStore",
      "outputs": [],
      "stateMutability": "nonpayable",
      "type": "function"
    },
    {
      "inputs": [
        {
          "internalType": "string",
          "name": "fileId",
          "type": "string"
        },
        {
          "internalType": "string",
          "name": "storeId",
          "type": "string"
        }
      ],
      "name": "getFile",
      "outputs": [
        {
          "internalType": "string",
          "name": "",
          "type": "string"
        }
      ],
      "stateMutability": "view",
      "type": "function",
      "constant": true
    },
    {
      "inputs": [
        {
          "internalType": "string",
          "name": "storeId",
          "type": "string"
        }
      ],
      "name": "addStore",
      "outputs": [],
      "stateMutability": "nonpayable",
      "type": "function"
    },
    {
      "inputs": [
        {
          "internalType": "string",
          "name": "storeId",
          "type": "string"
        }
      ],
      "name": "isStoreValid",
      "outputs": [
        {
          "internalType": "bool",
          "name": "",
          "type": "bool"
        }
      ],
      "stateMutability": "view",
      "type": "function",
      "constant": true
    }
  ],
  "bytecode": "0x608060405234801561001057600080fd5b5033600260006101000a81548173ffffffffffffffffffffffffffffffffffffffff021916908373ffffffffffffffffffffffffffffffffffffffff1602179055506114c8806100616000396000f3fe608060405234801561001057600080fd5b50600436106100625760003560e01c8063662feffc146100675780637bb4b0df1461008357806391548ace146100b3578063996d50bf146100e3578063a0e6dba2146100ff578063f851a4401461011b575b600080fd5b610081600480360381019061007c9190610bdd565b610139565b005b61009d60048036038101906100989190610bdd565b6102f4565b6040516100aa9190610c41565b60405180910390f35b6100cd60048036038101906100c89190610c5c565b610329565b6040516100da9190610d53565b60405180910390f35b6100fd60048036038101906100f89190610c5c565b6105f5565b005b61011960048036038101906101149190610c5c565b6107eb565b005b610123610a5d565b6040516101309190610db6565b60405180910390f35b600260009054906101000a900473ffffffffffffffffffffffffffffffffffffffff1673ffffffffffffffffffffffffffffffffffffffff163373ffffffffffffffffffffffffffffffffffffffff16146101c9576040517f08c379a00000000000000000000000000000000000000000000000000000000081526004016101c090610e43565b60405180910390fd5b600081511161020d576040517f08c379a000000000000000000000000000000000000000000000000000000000815260040161020490610eaf565b60405180910390fd5b60018160405161021d9190610f0b565b908152602001604051809103902060009054906101000a900460ff1615610279576040517f08c379a000000000000000000000000000000000000000000000000000000000815260040161027090610f6e565b60405180910390fd5b6001808260405161028a9190610f0b565b908152602001604051809103902060006101000a81548160ff021916908315150217905550806040516102bd9190610f0b565b60405180910390207f10f86fbcd505268eead8715205a458594e3fe967c11fd3231660416be30b83a760405160405180910390a250565b60006001826040516103069190610f0b565b908152602001604051809103902060009054906101000a900460ff169050919050565b60606000808460405161033c9190610f0b565b908152602001604051809103902060405180606001604052908160008201805461036590610fbd565b80601f016020809104026020016040519081016040528092919081815260200182805461039190610fbd565b80156103de5780601f106103b3576101008083540402835291602001916103de565b820191906000526020600020905b8154815290600101906020018083116103c157829003601f168201915b505050505081526020016001820180546103f790610fbd565b80601f016020809104026020016040519081016040528092919081815260200182805461042390610fbd565b80156104705780601f1061044557610100808354040283529160200191610470565b820191906000526020600020905b81548152906001019060200180831161045357829003601f168201915b5050505050815260200160028201805461048990610fbd565b80601f01602080910402602001604051908101604052809291908181526020018280546104b590610fbd565b80156105025780601f106104d757610100808354040283529160200191610502565b820191906000526020600020905b8154815290600101906020018083116104e557829003601f168201915b5050505050815250509050600081602001515111610555576040517f08c379a000000000000000000000000000000000000000000000000000000000815260040161054c9061103a565b60405180910390fd5b826040516020016105669190610f0b565b6040516020818303038152906040528051906020012081604001516040516020016105919190610f0b565b60405160208183030381529060405280519060200120146105e7576040517f08c379a00000000000000000000000000000000000000000000000000000000081526004016105de906110a6565b60405180910390fd5b806020015191505092915050565b600260009054906101000a900473ffffffffffffffffffffffffffffffffffffffff1673ffffffffffffffffffffffffffffffffffffffff163373ffffffffffffffffffffffffffffffffffffffff1614610685576040517f08c379a000000000000000000000000000000000000000000000000000000000815260040161067c90610e43565b60405180910390fd5b60008251116106c9576040517f08c379a00000000000000000000000000000000000000000000000000000000081526004016106c090611112565b60405180910390fd5b600081511161070d576040517f08c379a00000000000000000000000000000000000000000000000000000000081526004016107049061117e565b60405180910390fd5b6040518060600160405280838152602001828152602001604051806020016040528060008152508152506000836040516107479190610f0b565b9081526020016040518091039020600082015181600001908161076a9190611354565b5060208201518160010190816107809190611354565b5060408201518160020190816107969190611354565b50905050816040516107a89190610f0b565b60405180910390207fb8a7c0a723aeda01511e7d7da21ebab312983e489603e0973143ee22d41e1a1c826040516107df9190610d53565b60405180910390a25050565b600260009054906101000a900473ffffffffffffffffffffffffffffffffffffffff1673ffffffffffffffffffffffffffffffffffffffff163373ffffffffffffffffffffffffffffffffffffffff161461087b576040517f08c379a000000000000000000000000000000000000000000000000000000000815260040161087290610e43565b60405180910390fd5b60008251116108bf576040517f08c379a00000000000000000000000000000000000000000000000000000000081526004016108b690611112565b60405180910390fd5b6000815111610903576040517f08c379a00000000000000000000000000000000000000000000000000000000081526004016108fa90610eaf565b60405180910390fd5b6001816040516109139190610f0b565b908152602001604051809103902060009054906101000a900460ff1661096e576040517f08c379a000000000000000000000000000000000000000000000000000000000815260040161096590611472565b60405180910390fd5b6000808360405161097f9190610f0b565b9081526020016040518091039020600101805461099b90610fbd565b9050116109dd576040517f08c379a00000000000000000000000000000000000000000000000000000000081526004016109d49061103a565b60405180910390fd5b806000836040516109ee9190610f0b565b90815260200160405180910390206002019081610a0b9190611354565b5081604051610a1a9190610f0b565b60405180910390207f2c0a5050502195014e698df2e14d38e6986ea16cba1d220c4e11eebac7ddd32982604051610a519190610d53565b60405180910390a25050565b600260009054906101000a900473ffffffffffffffffffffffffffffffffffffffff1681565b6000604051905090565b600080fd5b600080fd5b600080fd5b600080fd5b6000601f19601f8301169050919050565b7f4e487b7100000000000000000000000000000000000000000000000000000000600052604160045260246000fd5b610aea82610aa1565b810181811067ffffffffffffffff82111715610b0957610b08610ab2565b5b80604052505050565b6000610b1c610a83565b9050610b288282610ae1565b919050565b600067ffffffffffffffff821115610b4857610b47610ab2565b5b610b5182610aa1565b9050602081019050919050565b82818337600083830152505050565b6000610b80610b7b84610b2d565b610b12565b905082815260208101848484011115610b9c57610b9b610a9c565b5b610ba7848285610b5e565b509392505050565b600082601f830112610bc457610bc3610a97565b5b8135610bd4848260208601610b6d565b91505092915050565b600060208284031215610bf357610bf2610a8d565b5b600082013567ffffffffffffffff811115610c1157610c10610a92565b5b610c1d84828501610baf565b91505092915050565b60008115159050919050565b610c3b81610c26565b82525050565b6000602082019050610c566000830184610c32565b92915050565b60008060408385031215610c7357610c72610a8d565b5b600083013567ffffffffffffffff811115610c9157610c90610a92565b5b610c9d85828601610baf565b925050602083013567ffffffffffffffff811115610cbe57610cbd610a92565b5b610cca85828601610baf565b9150509250929050565b600081519050919050565b600082825260208201905092915050565b60005b83811015610d0e578082015181840152602081019050610cf3565b60008484015250505050565b6000610d2582610cd4565b610d2f8185610cdf565b9350610d3f818560208601610cf0565b610d4881610aa1565b840191505092915050565b60006020820190508181036000830152610d6d8184610d1a565b905092915050565b600073ffffffffffffffffffffffffffffffffffffffff82169050919050565b6000610da082610d75565b9050919050565b610db081610d95565b82525050565b6000602082019050610dcb6000830184610da7565b92915050565b7f4f6e6c792061646d696e2063616e20706572666f726d2074686973206163746960008201527f6f6e000000000000000000000000000000000000000000000000000000000000602082015250565b6000610e2d602283610cdf565b9150610e3882610dd1565b604082019050919050565b60006020820190508181036000830152610e5c81610e20565b9050919050565b7f53746f72652049442063616e6e6f7420626520656d7074790000000000000000600082015250565b6000610e99601883610cdf565b9150610ea482610e63565b602082019050919050565b60006020820190508181036000830152610ec881610e8c565b9050919050565b600081905092915050565b6000610ee582610cd4565b610eef8185610ecf565b9350610eff818560208601610cf0565b80840191505092915050565b6000610f178284610eda565b915081905092915050565b7f53746f726520494420616c726561647920657869737473000000000000000000600082015250565b6000610f58601783610cdf565b9150610f6382610f22565b602082019050919050565b60006020820190508181036000830152610f8781610f4b565b9050919050565b7f4e487b7100000000000000000000000000000000000000000000000000000000600052602260045260246000fd5b60006002820490506001821680610fd557607f821691505b602082108103610fe857610fe7610f8e565b5b50919050565b7f46696c6520646f6573206e6f7420657869737400000000000000000000000000600082015250565b6000611024601383610cdf565b915061102f82610fee565b602082019050919050565b6000602082019050818103600083015261105381611017565b9050919050565b7f4163636573732064656e69656400000000000000000000000000000000000000600082015250565b6000611090600d83610cdf565b915061109b8261105a565b602082019050919050565b600060208201905081810360008301526110bf81611083565b9050919050565b7f46696c652049442063616e6e6f7420626520656d707479000000000000000000600082015250565b60006110fc601783610cdf565b9150611107826110c6565b602082019050919050565b6000602082019050818103600083015261112b816110ef565b9050919050565b7f4950465320686173682063616e6e6f7420626520656d70747900000000000000600082015250565b6000611168601983610cdf565b915061117382611132565b602082019050919050565b600060208201905081810360008301526111978161115b565b9050919050565b60008190508160005260206000209050919050565b60006020601f8301049050919050565b600082821b905092915050565b6000600883026112007fffffffffffffffffffffffffffffffffffffffffffffffffffffffffffffffff826111c3565b61120a86836111c3565b95508019841693508086168417925050509392505050565b6000819050919050565b6000819050919050565b600061125161124c61124784611222565b61122c565b611222565b9050919050565b6000819050919050565b61126b83611236565b61127f61127782611258565b8484546111d0565b825550505050565b600090565b611294611287565b61129f818484611262565b505050565b5b818110156112c3576112b860008261128c565b6001810190506112a5565b5050565b601f821115611308576112d98161119e565b6112e2846111b3565b810160208510156112f1578190505b6113056112fd856111b3565b8301826112a4565b50505b505050565b600082821c905092915050565b600061132b6000198460080261130d565b1980831691505092915050565b6000611344838361131a565b9150826002028217905092915050565b61135d82610cd4565b67ffffffffffffffff81111561137657611375610ab2565b5b6113808254610fbd565b61138b8282856112c7565b600060209050601f8311600181146113be57600084156113ac578287015190505b6113b68582611338565b86555061141e565b601f1984166113cc8661119e565b60005b828110156113f4578489015182556001820191506020850194506020810190506113cf565b86831015611411578489015161140d601f89168261131a565b8355505b6001600288020188555050505b505050505050565b7f496e76616c69642073746f726520494400000000000000000000000000000000600082015250565b600061145c601083610cdf565b915061146782611426565b602082019050919050565b6000602082019050818103600083015261148b8161144f565b905091905056fea264697066735822122003e886bb0675e845d7ec857f4f80fc46b045bee9c6a740e7873382676799fc2c64736f6c63430008130033",
  "immutableReferences": {},
  "source": "// SPDX-License-Identifier: MIT\r\npragma solidity ^0.8.0;\r\n\r\ncontract FileAccess {\r\n    // Struct to store file metadata\r\n    struct File {\r\n        string fileId;    // Unique file ID\r\n        string ipfsHash;  // IPFS hash of the document\r\n        string storeId;   // Store ID with access\r\n    }\r\n\r\n    // Mapping to store files based on unique file IDs\r\n    mapping(string => File) private files; \r\n\r\n    // Mapping to validate store IDs\r\n    mapping(string => bool) private storeIds;\r\n\r\n    // Owner of the contract (Backend Wallet)\r\n    address public admin;\r\n\r\n    // Events\r\n    event FileUploaded(string indexed fileId, string ipfsHash);\r\n    event StoreAssigned(string indexed fileId, string storeId);\r\n    event StoreAdded(string indexed storeId);\r\n    event FileAccessed(string indexed fileId, string storeId, string ipfsHash);\r\n\r\n    constructor() {\r\n        admin = msg.sender; // Set deployer as admin\r\n    }\r\n\r\n    // Modifier to restrict actions to admin only\r\n    modifier onlyAdmin() {\r\n        require(msg.sender == admin, \"Only admin can perform this action\");\r\n        _;\r\n    }\r\n\r\n    // Function to upload a file\r\n    function uploadFile(\r\n        string memory fileId,\r\n        string memory ipfsHash\r\n    ) external onlyAdmin {\r\n        require(bytes(fileId).length > 0, \"File ID cannot be empty\");\r\n        require(bytes(ipfsHash).length > 0, \"IPFS hash cannot be empty\");\r\n\r\n        files[fileId] = File({\r\n            fileId: fileId,\r\n            ipfsHash: ipfsHash,\r\n            storeId: \"\"\r\n        });\r\n\r\n        emit FileUploaded(fileId, ipfsHash);\r\n    }\r\n\r\n    // Function to assign a store to a file\r\n    function assignStore(\r\n        string memory fileId,\r\n        string memory storeId\r\n    ) external onlyAdmin {\r\n        require(bytes(fileId).length > 0, \"File ID cannot be empty\");\r\n        require(bytes(storeId).length > 0, \"Store ID cannot be empty\");\r\n        require(storeIds[storeId], \"Invalid store ID\");\r\n        require(bytes(files[fileId].ipfsHash).length > 0, \"File does not exist\");\r\n\r\n        files[fileId].storeId = storeId;\r\n\r\n        emit StoreAssigned(fileId, storeId);\r\n    }\r\n\r\n    // Function to allow a store to access its files\r\n    function getFile(string memory fileId, string memory storeId) external view returns (string memory) {\r\n        File memory file = files[fileId];\r\n\r\n        require(bytes(file.ipfsHash).length > 0, \"File does not exist\");\r\n        require(keccak256(abi.encodePacked(file.storeId)) == keccak256(abi.encodePacked(storeId)), \"Access denied\");\r\n        return file.ipfsHash;\r\n    }\r\n\r\n    // Function to add new store IDs (Admin only)\r\n    function addStore(string memory storeId) external onlyAdmin {\r\n        require(bytes(storeId).length > 0, \"Store ID cannot be empty\");\r\n        require(!storeIds[storeId], \"Store ID already exists\");\r\n\r\n        storeIds[storeId] = true;\r\n\r\n        emit StoreAdded(storeId);\r\n    }\r\n\r\n    // Function to check if a store ID is valid\r\n    function isStoreValid(string memory storeId) external view returns (bool) {\r\n        return storeIds[storeId];\r\n    }\r\n}\r\n",
  "sourcePath": "C:\\Users\\haris\\OneDrive\\Desktop\\Xerox Delivery\\backend\\contracts\\FileAccess.sol",
  "compiler": {
    "name": "solc",
    "version": "0.8.19+commit.7dd6d404.Emscripten.clang"
  },
  "schemaVersion": "3.4.16",
  "updatedAt": "2025-03-03T05:00:15.623Z",
  "networkType": "ethereum",
  "devdoc": {
    "kind": "dev",
    "methods": {},
    "version": 1
  },
  "userdoc": {
    "kind": "user",
    "methods": {},
    "version": 1
  }
}