{
  "contractName": "FileAccess",
  "abi": [
    {
      "inputs": [],
      "stateMutability": "nonpayable",
      "type": "constructor"
    },
    {
      "anonymous": false,
      "inputs": [
        {
          "indexed": true,
          "internalType": "string",
          "name": "fileId",
          "type": "string"
        },
        {
          "indexed": false,
          "internalType": "string",
          "name": "storeId",
          "type": "string"
        },
        {
          "indexed": false,
          "internalType": "string",
          "name": "ipfsHash",
          "type": "string"
        },
        {
          "indexed": false,
          "internalType": "uint256",
          "name": "timestamp",
          "type": "uint256"
        }
      ],
      "name": "FileUploaded",
      "type": "event"
    },
    {
      "anonymous": false,
      "inputs": [
        {
          "indexed": true,
          "internalType": "string",
          "name": "storeId",
          "type": "string"
        }
      ],
      "name": "StoreAdded",
      "type": "event"
    },
    {
      "inputs": [],
      "name": "admin",
      "outputs": [
        {
          "internalType": "address",
          "name": "",
          "type": "address"
        }
      ],
      "stateMutability": "view",
      "type": "function",
      "constant": true
    },
    {
      "inputs": [
        {
          "internalType": "string",
          "name": "fileId",
          "type": "string"
        },
        {
          "internalType": "string",
          "name": "storeId",
          "type": "string"
        },
        {
          "internalType": "string",
          "name": "ipfsHash",
          "type": "string"
        }
      ],
      "name": "uploadFile",
      "outputs": [],
      "stateMutability": "nonpayable",
      "type": "function"
    },
    {
      "inputs": [
        {
          "internalType": "string",
          "name": "fileId",
          "type": "string"
        },
        {
          "internalType": "string",
          "name": "storeId",
          "type": "string"
        }
      ],
      "name": "getFile",
      "outputs": [
        {
          "internalType": "string",
          "name": "",
          "type": "string"
        },
        {
          "internalType": "uint256",
          "name": "",
          "type": "uint256"
        }
      ],
      "stateMutability": "view",
      "type": "function",
      "constant": true
    },
    {
      "inputs": [
        {
          "internalType": "string",
          "name": "storeId",
          "type": "string"
        }
      ],
      "name": "addStore",
      "outputs": [],
      "stateMutability": "nonpayable",
      "type": "function"
    },
    {
      "inputs": [
        {
          "internalType": "string",
          "name": "storeId",
          "type": "string"
        }
      ],
      "name": "isStoreValid",
      "outputs": [
        {
          "internalType": "bool",
          "name": "",
          "type": "bool"
        }
      ],
      "stateMutability": "view",
      "type": "function",
      "constant": true
    }
  ],
  "bytecode": "0x608060405234801561001057600080fd5b5033600260006101000a81548173ffffffffffffffffffffffffffffffffffffffff021916908373ffffffffffffffffffffffffffffffffffffffff16021790555061140d806100616000396000f3fe608060405234801561001057600080fd5b50600436106100575760003560e01c8063662feffc1461005c5780637bb4b0df1461007857806391548ace146100a857806392bb481a146100d9578063f851a440146100f5575b600080fd5b61007660048036038101906100719190610a19565b610113565b005b610092600480360381019061008d9190610a19565b6102ce565b60405161009f9190610a7d565b60405180910390f35b6100c260048036038101906100bd9190610a98565b610303565b6040516100d0929190610ba8565b60405180910390f35b6100f360048036038101906100ee9190610bd8565b6105a7565b005b6100fd610899565b60405161010a9190610cc0565b60405180910390f35b600260009054906101000a900473ffffffffffffffffffffffffffffffffffffffff1673ffffffffffffffffffffffffffffffffffffffff163373ffffffffffffffffffffffffffffffffffffffff16146101a3576040517f08c379a000000000000000000000000000000000000000000000000000000000815260040161019a90610d4d565b60405180910390fd5b60008151116101e7576040517f08c379a00000000000000000000000000000000000000000000000000000000081526004016101de90610db9565b60405180910390fd5b6001816040516101f79190610e15565b908152602001604051809103902060009054906101000a900460ff1615610253576040517f08c379a000000000000000000000000000000000000000000000000000000000815260040161024a90610e78565b60405180910390fd5b600180826040516102649190610e15565b908152602001604051809103902060006101000a81548160ff021916908315150217905550806040516102979190610e15565b60405180910390207f10f86fbcd505268eead8715205a458594e3fe967c11fd3231660416be30b83a760405160405180910390a250565b60006001826040516102e09190610e15565b908152602001604051809103902060009054906101000a900460ff169050919050565b60606000806000856040516103189190610e15565b908152602001604051809103902060405180608001604052908160008201805461034190610ec7565b80601f016020809104026020016040519081016040528092919081815260200182805461036d90610ec7565b80156103ba5780601f1061038f576101008083540402835291602001916103ba565b820191906000526020600020905b81548152906001019060200180831161039d57829003601f168201915b50505050508152602001600182015481526020016002820160009054906101000a900473ffffffffffffffffffffffffffffffffffffffff1673ffffffffffffffffffffffffffffffffffffffff1673ffffffffffffffffffffffffffffffffffffffff16815260200160038201805461043390610ec7565b80601f016020809104026020016040519081016040528092919081815260200182805461045f90610ec7565b80156104ac5780601f10610481576101008083540402835291602001916104ac565b820191906000526020600020905b81548152906001019060200180831161048f57829003601f168201915b50505050508152505090506000816000015151116104ff576040517f08c379a00000000000000000000000000000000000000000000000000000000081526004016104f690610f44565b60405180910390fd5b836040516020016105109190610e15565b60405160208183030381529060405280519060200120816060015160405160200161053b9190610e15565b6040516020818303038152906040528051906020012014610591576040517f08c379a000000000000000000000000000000000000000000000000000000000815260040161058890610fb0565b60405180910390fd5b8060000151816020015192509250509250929050565b600260009054906101000a900473ffffffffffffffffffffffffffffffffffffffff1673ffffffffffffffffffffffffffffffffffffffff163373ffffffffffffffffffffffffffffffffffffffff1614610637576040517f08c379a000000000000000000000000000000000000000000000000000000000815260040161062e90610d4d565b60405180910390fd5b600083511161067b576040517f08c379a00000000000000000000000000000000000000000000000000000000081526004016106729061101c565b60405180910390fd5b60008251116106bf576040517f08c379a00000000000000000000000000000000000000000000000000000000081526004016106b690610db9565b60405180910390fd5b6000815111610703576040517f08c379a00000000000000000000000000000000000000000000000000000000081526004016106fa90611088565b60405180910390fd5b6001826040516107139190610e15565b908152602001604051809103902060009054906101000a900460ff1661076e576040517f08c379a0000000000000000000000000000000000000000000000000000000008152600401610765906110f4565b60405180910390fd5b60405180608001604052808281526020014281526020013373ffffffffffffffffffffffffffffffffffffffff168152602001838152506000846040516107b59190610e15565b908152602001604051809103902060008201518160000190816107d891906112c0565b506020820151816001015560408201518160020160006101000a81548173ffffffffffffffffffffffffffffffffffffffff021916908373ffffffffffffffffffffffffffffffffffffffff160217905550606082015181600301908161083f91906112c0565b50905050826040516108519190610e15565b60405180910390207ff55f92960f2463eeef8dfa47dbe286e2a52c02a35b326d6e1061b082307f9a3c83834260405161088c93929190611392565b60405180910390a2505050565b600260009054906101000a900473ffffffffffffffffffffffffffffffffffffffff1681565b6000604051905090565b600080fd5b600080fd5b600080fd5b600080fd5b6000601f19601f8301169050919050565b7f4e487b7100000000000000000000000000000000000000000000000000000000600052604160045260246000fd5b610926826108dd565b810181811067ffffffffffffffff82111715610945576109446108ee565b5b80604052505050565b60006109586108bf565b9050610964828261091d565b919050565b600067ffffffffffffffff821115610984576109836108ee565b5b61098d826108dd565b9050602081019050919050565b82818337600083830152505050565b60006109bc6109b784610969565b61094e565b9050828152602081018484840111156109d8576109d76108d8565b5b6109e384828561099a565b509392505050565b600082601f830112610a00576109ff6108d3565b5b8135610a108482602086016109a9565b91505092915050565b600060208284031215610a2f57610a2e6108c9565b5b600082013567ffffffffffffffff811115610a4d57610a4c6108ce565b5b610a59848285016109eb565b91505092915050565b60008115159050919050565b610a7781610a62565b82525050565b6000602082019050610a926000830184610a6e565b92915050565b60008060408385031215610aaf57610aae6108c9565b5b600083013567ffffffffffffffff811115610acd57610acc6108ce565b5b610ad9858286016109eb565b925050602083013567ffffffffffffffff811115610afa57610af96108ce565b5b610b06858286016109eb565b9150509250929050565b600081519050919050565b600082825260208201905092915050565b60005b83811015610b4a578082015181840152602081019050610b2f565b60008484015250505050565b6000610b6182610b10565b610b6b8185610b1b565b9350610b7b818560208601610b2c565b610b84816108dd565b840191505092915050565b6000819050919050565b610ba281610b8f565b82525050565b60006040820190508181036000830152610bc28185610b56565b9050610bd16020830184610b99565b9392505050565b600080600060608486031215610bf157610bf06108c9565b5b600084013567ffffffffffffffff811115610c0f57610c0e6108ce565b5b610c1b868287016109eb565b935050602084013567ffffffffffffffff811115610c3c57610c3b6108ce565b5b610c48868287016109eb565b925050604084013567ffffffffffffffff811115610c6957610c686108ce565b5b610c75868287016109eb565b9150509250925092565b600073ffffffffffffffffffffffffffffffffffffffff82169050919050565b6000610caa82610c7f565b9050919050565b610cba81610c9f565b82525050565b6000602082019050610cd56000830184610cb1565b92915050565b7f4f6e6c792061646d696e2063616e20706572666f726d2074686973206163746960008201527f6f6e000000000000000000000000000000000000000000000000000000000000602082015250565b6000610d37602283610b1b565b9150610d4282610cdb565b604082019050919050565b60006020820190508181036000830152610d6681610d2a565b9050919050565b7f53746f72652049442063616e6e6f7420626520656d7074790000000000000000600082015250565b6000610da3601883610b1b565b9150610dae82610d6d565b602082019050919050565b60006020820190508181036000830152610dd281610d96565b9050919050565b600081905092915050565b6000610def82610b10565b610df98185610dd9565b9350610e09818560208601610b2c565b80840191505092915050565b6000610e218284610de4565b915081905092915050565b7f53746f726520494420616c726561647920657869737473000000000000000000600082015250565b6000610e62601783610b1b565b9150610e6d82610e2c565b602082019050919050565b60006020820190508181036000830152610e9181610e55565b9050919050565b7f4e487b7100000000000000000000000000000000000000000000000000000000600052602260045260246000fd5b60006002820490506001821680610edf57607f821691505b602082108103610ef257610ef1610e98565b5b50919050565b7f46696c6520646f6573206e6f7420657869737400000000000000000000000000600082015250565b6000610f2e601383610b1b565b9150610f3982610ef8565b602082019050919050565b60006020820190508181036000830152610f5d81610f21565b9050919050565b7f4163636573732064656e69656400000000000000000000000000000000000000600082015250565b6000610f9a600d83610b1b565b9150610fa582610f64565b602082019050919050565b60006020820190508181036000830152610fc981610f8d565b9050919050565b7f46696c652049442063616e6e6f7420626520656d707479000000000000000000600082015250565b6000611006601783610b1b565b915061101182610fd0565b602082019050919050565b6000602082019050818103600083015261103581610ff9565b9050919050565b7f4950465320686173682063616e6e6f7420626520656d70747900000000000000600082015250565b6000611072601983610b1b565b915061107d8261103c565b602082019050919050565b600060208201905081810360008301526110a181611065565b9050919050565b7f496e76616c69642073746f726520494400000000000000000000000000000000600082015250565b60006110de601083610b1b565b91506110e9826110a8565b602082019050919050565b6000602082019050818103600083015261110d816110d1565b9050919050565b60008190508160005260206000209050919050565b60006020601f8301049050919050565b600082821b905092915050565b6000600883026111767fffffffffffffffffffffffffffffffffffffffffffffffffffffffffffffffff82611139565b6111808683611139565b95508019841693508086168417925050509392505050565b6000819050919050565b60006111bd6111b86111b384610b8f565b611198565b610b8f565b9050919050565b6000819050919050565b6111d7836111a2565b6111eb6111e3826111c4565b848454611146565b825550505050565b600090565b6112006111f3565b61120b8184846111ce565b505050565b5b8181101561122f576112246000826111f8565b600181019050611211565b5050565b601f8211156112745761124581611114565b61124e84611129565b8101602085101561125d578190505b61127161126985611129565b830182611210565b50505b505050565b600082821c905092915050565b600061129760001984600802611279565b1980831691505092915050565b60006112b08383611286565b9150826002028217905092915050565b6112c982610b10565b67ffffffffffffffff8111156112e2576112e16108ee565b5b6112ec8254610ec7565b6112f7828285611233565b600060209050601f83116001811461132a5760008415611318578287015190505b61132285826112a4565b86555061138a565b601f19841661133886611114565b60005b828110156113605784890151825560018201915060208501945060208101905061133b565b8683101561137d5784890151611379601f891682611286565b8355505b6001600288020188555050505b505050505050565b600060608201905081810360008301526113ac8186610b56565b905081810360208301526113c08185610b56565b90506113cf6040830184610b99565b94935050505056fea26469706673582212208bd3cc214ab028d4d13383887e56ef82c9f58b66886658f5453993ec3be47be464736f6c63430008130033",
  "immutableReferences": {},
  "source": "// SPDX-License-Identifier: MIT\r\npragma solidity ^0.8.0;\r\n\r\ncontract FileAccess {\r\n    // Struct to store file metadata\r\n    struct File {\r\n        string ipfsHash; // IPFS hash of the document\r\n        uint256 timestamp; // Timestamp of file upload\r\n        address uploader;  // Address of the uploader\r\n        string storeId;    // Store ID with access\r\n    }\r\n\r\n    // Mapping to store files based on unique file IDs\r\n    mapping(string => File) private files;\r\n\r\n    // Mapping to validate store IDs\r\n    mapping(string => bool) private storeIds;\r\n\r\n    // Owner of the contract (Backend Wallet)\r\n    address public admin;\r\n\r\n    // Events\r\n    event FileUploaded(string indexed fileId, string storeId, string ipfsHash, uint256 timestamp);\r\n    event StoreAdded(string indexed storeId);\r\n\r\n    constructor() {\r\n        admin = msg.sender; // Set deployer as admin\r\n    }\r\n\r\n    // Modifier to restrict actions to admin only\r\n    modifier onlyAdmin() {\r\n        require(msg.sender == admin, \"Only admin can perform this action\");\r\n        _;\r\n    }\r\n\r\n    // Function to upload a file and assign it to a store\r\n    function uploadFile(\r\n        string memory fileId,\r\n        string memory storeId,\r\n        string memory ipfsHash\r\n    ) external onlyAdmin {\r\n        require(bytes(fileId).length > 0, \"File ID cannot be empty\");\r\n        require(bytes(storeId).length > 0, \"Store ID cannot be empty\");\r\n        require(bytes(ipfsHash).length > 0, \"IPFS hash cannot be empty\");\r\n        require(storeIds[storeId], \"Invalid store ID\");\r\n\r\n        files[fileId] = File({\r\n            ipfsHash: ipfsHash,\r\n            timestamp: block.timestamp,\r\n            uploader: msg.sender,\r\n            storeId: storeId\r\n        });\r\n\r\n        emit FileUploaded(fileId, storeId, ipfsHash, block.timestamp);\r\n    }\r\n\r\n    // Function to allow a store to access its files\r\n    function getFile(string memory fileId, string memory storeId) external view returns (string memory, uint256) {\r\n        File memory file = files[fileId];\r\n\r\n        require(bytes(file.ipfsHash).length > 0, \"File does not exist\");\r\n        require(keccak256(abi.encodePacked(file.storeId)) == keccak256(abi.encodePacked(storeId)), \"Access denied\");\r\n\r\n        return (file.ipfsHash, file.timestamp);\r\n    }\r\n\r\n    // Function to add new store IDs (Admin only)\r\n    function addStore(string memory storeId) external onlyAdmin {\r\n        require(bytes(storeId).length > 0, \"Store ID cannot be empty\");\r\n        require(!storeIds[storeId], \"Store ID already exists\");\r\n\r\n        storeIds[storeId] = true;\r\n\r\n        emit StoreAdded(storeId);\r\n    }\r\n\r\n    // Function to check if a store ID is valid\r\n    function isStoreValid(string memory storeId) external view returns (bool) {\r\n        return storeIds[storeId];\r\n    }\r\n}\r\n",
  "sourcePath": "C:\\Users\\haris\\OneDrive\\Desktop\\Xerox Delivery\\backend\\contracts\\FileAccess.sol",
  "compiler": {
    "name": "solc",
    "version": "0.8.19+commit.7dd6d404.Emscripten.clang"
  },
  "schemaVersion": "3.4.16",
  "updatedAt": "2024-12-08T09:19:45.094Z",
  "networkType": "ethereum",
  "devdoc": {
    "kind": "dev",
    "methods": {},
    "version": 1
  },
  "userdoc": {
    "kind": "user",
    "methods": {},
    "version": 1
  }
}