{
  "contractName": "Test",
  "abi": [
    {
      "inputs": [
        {
          "internalType": "string",
          "name": "",
          "type": "string"
        }
      ],
      "name": "files",
      "outputs": [
        {
          "internalType": "string",
          "name": "cid",
          "type": "string"
        }
      ],
      "stateMutability": "view",
      "type": "function",
      "constant": true
    },
    {
      "inputs": [
        {
          "internalType": "string",
          "name": "_cid",
          "type": "string"
        },
        {
          "internalType": "string",
          "name": "_deliveryPartner",
          "type": "string"
        }
      ],
      "name": "addFile",
      "outputs": [],
      "stateMutability": "nonpayable",
      "type": "function"
    },
    {
      "inputs": [
        {
          "internalType": "string",
          "name": "_deliveryPartner",
          "type": "string"
        }
      ],
      "name": "getFile",
      "outputs": [
        {
          "internalType": "string",
          "name": "",
          "type": "string"
        }
      ],
      "stateMutability": "view",
      "type": "function",
      "constant": true
    }
  ],
  "bytecode": "0x608060405234801561001057600080fd5b50610983806100206000396000f3fe608060405234801561001057600080fd5b50600436106100415760003560e01c8063248bfc3b14610046578063e0876aa814610062578063e775576114610092575b600080fd5b610060600480360381019061005b9190610444565b6100c2565b005b61007c600480360381019061007791906104bc565b61010c565b6040516100899190610584565b60405180910390f35b6100ac60048036038101906100a791906104bc565b61022e565b6040516100b99190610584565b60405180910390f35b6040518060200160405280838152506000826040516100e191906105e2565b90815260200160405180910390206000820151816000019081610104919061080f565b509050505050565b60606000808360405161011f91906105e2565b9081526020016040518091039020600001805461013b90610628565b90500361017d576040517f08c379a00000000000000000000000000000000000000000000000000000000081526004016101749061092d565b60405180910390fd5b60008260405161018d91906105e2565b908152602001604051809103902060000180546101a990610628565b80601f01602080910402602001604051908101604052809291908181526020018280546101d590610628565b80156102225780601f106101f757610100808354040283529160200191610222565b820191906000526020600020905b81548152906001019060200180831161020557829003601f168201915b50505050509050919050565b60008180516020810182018051848252602083016020850120818352809550505050505060009150905080600001805461026790610628565b80601f016020809104026020016040519081016040528092919081815260200182805461029390610628565b80156102e05780601f106102b5576101008083540402835291602001916102e0565b820191906000526020600020905b8154815290600101906020018083116102c357829003601f168201915b5050505050905081565b6000604051905090565b600080fd5b600080fd5b600080fd5b600080fd5b6000601f19601f8301169050919050565b7f4e487b7100000000000000000000000000000000000000000000000000000000600052604160045260246000fd5b61035182610308565b810181811067ffffffffffffffff821117156103705761036f610319565b5b80604052505050565b60006103836102ea565b905061038f8282610348565b919050565b600067ffffffffffffffff8211156103af576103ae610319565b5b6103b882610308565b9050602081019050919050565b82818337600083830152505050565b60006103e76103e284610394565b610379565b90508281526020810184848401111561040357610402610303565b5b61040e8482856103c5565b509392505050565b600082601f83011261042b5761042a6102fe565b5b813561043b8482602086016103d4565b91505092915050565b6000806040838503121561045b5761045a6102f4565b5b600083013567ffffffffffffffff811115610479576104786102f9565b5b61048585828601610416565b925050602083013567ffffffffffffffff8111156104a6576104a56102f9565b5b6104b285828601610416565b9150509250929050565b6000602082840312156104d2576104d16102f4565b5b600082013567ffffffffffffffff8111156104f0576104ef6102f9565b5b6104fc84828501610416565b91505092915050565b600081519050919050565b600082825260208201905092915050565b60005b8381101561053f578082015181840152602081019050610524565b60008484015250505050565b600061055682610505565b6105608185610510565b9350610570818560208601610521565b61057981610308565b840191505092915050565b6000602082019050818103600083015261059e818461054b565b905092915050565b600081905092915050565b60006105bc82610505565b6105c681856105a6565b93506105d6818560208601610521565b80840191505092915050565b60006105ee82846105b1565b915081905092915050565b7f4e487b7100000000000000000000000000000000000000000000000000000000600052602260045260246000fd5b6000600282049050600182168061064057607f821691505b602082108103610653576106526105f9565b5b50919050565b60008190508160005260206000209050919050565b60006020601f8301049050919050565b600082821b905092915050565b6000600883026106bb7fffffffffffffffffffffffffffffffffffffffffffffffffffffffffffffffff8261067e565b6106c5868361067e565b95508019841693508086168417925050509392505050565b6000819050919050565b6000819050919050565b600061070c610707610702846106dd565b6106e7565b6106dd565b9050919050565b6000819050919050565b610726836106f1565b61073a61073282610713565b84845461068b565b825550505050565b600090565b61074f610742565b61075a81848461071d565b505050565b5b8181101561077e57610773600082610747565b600181019050610760565b5050565b601f8211156107c35761079481610659565b61079d8461066e565b810160208510156107ac578190505b6107c06107b88561066e565b83018261075f565b50505b505050565b600082821c905092915050565b60006107e6600019846008026107c8565b1980831691505092915050565b60006107ff83836107d5565b9150826002028217905092915050565b61081882610505565b67ffffffffffffffff81111561083157610830610319565b5b61083b8254610628565b610846828285610782565b600060209050601f8311600181146108795760008415610867578287015190505b61087185826107f3565b8655506108d9565b601f19841661088786610659565b60005b828110156108af5784890151825560018201915060208501945060208101905061088a565b868310156108cc57848901516108c8601f8916826107d5565b8355505b6001600288020188555050505b505050505050565b7f46696c6520646f6573206e6f7420657869737400000000000000000000000000600082015250565b6000610917601383610510565b9150610922826108e1565b602082019050919050565b600060208201905081810360008301526109468161090a565b905091905056fea264697066735822122050b1ffc702aa534f8333b02440229d55456e799b17ff57643723e80fd9acdc4864736f6c63430008130033",
  "immutableReferences": {},
  "source": "// SPDX-License-Identifier: MIT\r\npragma solidity 0.8.19;\r\n\r\ncontract Test {\r\n    struct File {\r\n        string cid;\r\n    }\r\n\r\n    // Mapping from delivery partner address to file\r\n    mapping(string => File) public files;\r\n\r\n    // Add a file for a specific delivery partner\r\n    function addFile(string memory _cid, string memory _deliveryPartner) public {\r\n        files[_deliveryPartner] = File(_cid);\r\n    }\r\n\r\n    // Retrieve the file's CID for a delivery partner\r\n    function getFile(string memory _deliveryPartner) public view returns (string memory) {\r\n        require(bytes(files[_deliveryPartner].cid).length != 0, \"File does not exist\");\r\n        return files[_deliveryPartner].cid;\r\n    }\r\n}\r\n",
  "sourcePath": "C:\\Users\\haris\\OneDrive\\Desktop\\Xerox Delivery\\backend\\contracts\\Test.sol",
  "compiler": {
    "name": "solc",
    "version": "0.8.19+commit.7dd6d404.Emscripten.clang"
  },
  "schemaVersion": "3.4.16",
  "updatedAt": "2024-12-08T09:19:45.421Z",
  "networkType": "ethereum",
  "devdoc": {
    "kind": "dev",
    "methods": {},
    "version": 1
  },
  "userdoc": {
    "kind": "user",
    "methods": {},
    "version": 1
  }
}